{
  "contractName": "RockPaperScissors",
  "abi": [
    {
      "constant": true,
      "inputs": [],
      "name": "owner",
      "outputs": [
        {
          "name": "",
          "type": "address"
        }
      ],
      "payable": false,
      "stateMutability": "view",
      "type": "function"
    },
    {
      "inputs": [],
      "payable": false,
      "stateMutability": "nonpayable",
      "type": "constructor"
    },
    {
      "constant": false,
      "inputs": [
        {
          "name": "id",
          "type": "bytes32"
        },
        {
          "name": "_amount",
          "type": "uint256"
        },
        {
          "name": "_end",
          "type": "uint256"
        }
      ],
      "name": "startGame",
      "outputs": [
        {
          "name": "",
          "type": "bool"
        }
      ],
      "payable": false,
      "stateMutability": "nonpayable",
      "type": "function"
    },
    {
      "constant": true,
      "inputs": [
        {
          "name": "id",
          "type": "bytes32"
        }
      ],
      "name": "getGame",
      "outputs": [
        {
          "name": "",
          "type": "uint256"
        },
        {
          "name": "",
          "type": "uint256"
        },
        {
          "name": "",
          "type": "uint8"
        }
      ],
      "payable": false,
      "stateMutability": "view",
      "type": "function"
    }
  ],
  "bytecode": "0x6060604052341561000f57600080fd5b336000806101000a81548173ffffffffffffffffffffffffffffffffffffffff021916908373ffffffffffffffffffffffffffffffffffffffff16021790555061046d8061005e6000396000f300606060405260043610610057576000357c0100000000000000000000000000000000000000000000000000000000900463ffffffff16806373931bbf1461005c5780637a906ce7146100b35780638da5cb5b14610104575b600080fd5b341561006757600080fd5b610081600480803560001916906020019091905050610159565b6040518084815260200183815260200182600381111561009d57fe5b60ff168152602001935050505060405180910390f35b34156100be57600080fd5b6100ea60048080356000191690602001909190803590602001909190803590602001909190505061028e565b604051808215151515815260200191505060405180910390f35b341561010f57600080fd5b610117610381565b604051808273ffffffffffffffffffffffffffffffffffffffff1673ffffffffffffffffffffffffffffffffffffffff16815260200191505060405180910390f35b60008060006101666103a6565b60016000866000191660001916815260200190815260200160002060806040519081016040529081600082015481526020016001820154815260200160028201600280602002604051908101604052809291906000905b8282101561023a57838260030201608060405190810160405290816000820154600019166000191681526020016001820160009054906101000a900460ff161515151581526020016001820160019054906101000a900460ff1660ff1660ff168152602001600282015481525050815260200190600101906101bd565b5050505081526020016008820160009054906101000a900460ff16600381111561026057fe5b600381111561026b57fe5b815250509050806000015181602001518260600151935093509350509193909250565b6000808311151561029e57600080fd5b60006001028460001916141515156102b557600080fd5b43821115156102c357600080fd5b6000600160008660001916600019168152602001908152602001600020600101541415156102f057600080fd5b82600160008660001916600019168152602001908152602001600020600001819055508160016000866000191660001916815260200190815260200160002060010181905550600060016000866000191660001916815260200190815260200160002060080160006101000a81548160ff0219169083600381111561037157fe5b0217905550600190509392505050565b6000809054906101000a900473ffffffffffffffffffffffffffffffffffffffff1681565b6101606040519081016040528060008152602001600081526020016103c96103e1565b8152602001600060038111156103db57fe5b81525090565b610100604051908101604052806002905b6103fa610410565b8152602001906001900390816103f25790505090565b60806040519081016040528060008019168152602001600015158152602001600060ff1681526020016000815250905600a165627a7a72305820c9ef9a15f0836b2a4f39dc18369620af9cc6b4a92b2e1805705cc843bd94f7030029",
  "source": "pragma solidity 0.4.21;\n\n\ncontract RockPaperScissors {\n\n    address public owner;\n\n    enum State {Created, BettingEnd, Revealed, End}\n    State state;\n\n    struct Player {\n        bytes32 choose;\n        bool revealed;\n        uint8 score;\n        uint256 balance;\n    }\n\n    struct Game {\n        uint256 amount;\n        uint256 end;\n        Player[2] players;\n        State state;\n    }\n\n    mapping(bytes32 => Game) games;\n\n    function RockPaperScissors() public {\n        owner = msg.sender;\n    }\n\n    function startGame(bytes32 id, uint256 _amount, uint256 _end)\n        public\n        returns (bool)\n    {\n        require(_amount > 0);\n        require(id != 0x0);\n        require(_end > block.number);\n        require(games[id].end == 0);\n\n        games[id].amount = _amount;\n        games[id].end = _end;\n        games[id].state = State.Created;\n        return true;\n    }\n\n    function getGame(bytes32 id)\n        public\n        view\n        returns (uint256, uint256, State)\n    {\n        Game memory game = games[id];\n        return(game.amount, game.end, game.state);\n    }\n\n    /* function bet(address player, bytes32 choose)\n        public\n        onlyOwner\n        notEnd\n        returns (bool)\n    {\n        require(player != address(0x0));\n        require(playersNumber < 2);\n\n        playersNumber++;\n        playersChoose[player].choose = choose;\n        return true;\n    }\n\n    function revealBet(address player, bytes32 secretKey, bytes32 choose)\n        public\n        onlyOwner\n        returns (bool)\n    {\n        require(playersNumber == 2);\n        require(secretKey != 0x0);\n        require( 2 <= choose >= 0);\n        require(!revealed[player]);\n        require(keccak256(secretKey, choose) == playersChoose[player].choose);\n\n        revealed[player].revealed = true;\n        playersChoose[player].choose = choose;\n\n        return true;\n    }\n\n    function () public payable {\n        msg.sender.transfer(msg.value);\n    } */\n\n    //this.moves = {\n    \t\t//\"2\" : \"1\",\n    \t\t//\"3\" : \"2\",\n    \t\t//\"1\" : \"3\"\n    \t//};\n}\n",
  "sourcePath": "/Users/underdog/b9lab/RockPaperScissors/contracts/RockPaperScissors.sol",
  "compiler": {
    "name": "solc",
    "version": "0.4.21+commit.dfe3193c.Emscripten.clang"
  },
  "schemaVersion": "2.0.0",
  "updatedAt": "2018-04-16T09:07:42.495Z"
}